:020000040000FA
:060000009AEF15F012005A
:020006001200E6
:0600080062EF15F012008A
:02000E000300ED
:100010003D2700009D00000001000000F12B0000C2
:100020009B00000002000000E22B000080000000A6
:040030000F000000BD
:0C00340000018051100B0EE18051080B00
:100040000BE18051040B08E08051020B05E1805167
:10005000010B02E17DEF01F08051100B0CE08051AB
:10006000080B09E18051040B06E18051020B03E10A
:100070008051010B60E08051100B0EE08051080BA5
:100080000BE08051040B08E18051020B05E1805127
:10009000010B02E149EF01F08051100B0CE180519E
:1000A000080B09E08051040B06E18051020B03E1CB
:1000B0008051010B0FE08051100B0EE18051080BB5
:1000C0000BE08051040B08E08051020B05E18051E8
:1000D000010B02E163EF01F08051100B0CE1805144
:1000E000080B09E18051040B06E18051020B03E08B
:1000F0008051010B0FE08051100B0EE18051080B75
:100100000BE18051040B08E08051020B05E08051A7
:10011000010B02E1B0EF01F08051100B0EE18051B4
:10012000080B0BE18051040B08E18051020B05E143
:100130008051010B02E014EF02F08051100B0EE130
:100140008051080B0BE18051040B08E18051020B38
:1001500005E08051010B02E097EF01F080511F0B89
:10016000000902E136EF02F08051100B0EE18051E0
:10017000080B0BE18051040B08E08051020B05E0F5
:100180008051010B02E075EF02F08051100B0EE080
:100190008051080B0BE08051040B08E08051020BEA
:1001A00005E18051010B02E19CEF03F08051100B3F
:1001B0000EE18051080B0BE18051040B08E08051E7
:1001C000020B05E18051010B02E0C3EF04F0805106
:1001D000100B0EE08051080B0BE18051040B08E07E
:1001E0008051020B05E18051010B02E1D0EF06F0D6
:1001F0008051100B0CE08051080B09E18051040B79
:1002000006E18051020B03E08051010B1EE080519A
:10021000100B0CE18051080B09E08051040B06E142
:100220008051020B03E18051010B20E18051100B42
:100230000EE08051080B0BE08051040B08E1805167
:10024000020B05E08051010B02E1CAEF01F0805181
:10025000100B0EE18051080B0BE08051040B08E1FC
:100260008051020B05E08051010B02E0E4EF01F048
:100270008051100B0DE08051080B0AE08051040BF7
:1002800007E08051020B04E08051010B01E0D2D85D
:100290001200000EE66EE66A010EE66EE66A66EC95
:1002A0000FF0E552E552E552E552000EE66EE66AC1
:1002B000050EE66E010EE66E66EC0FF0E552E552B5
:1002C000E552E5521200280EE66EE66A030EE66E6F
:1002D000E66A66EC0FF0E552E552E552E552000E93
:1002E000E66EE66A050EE66E010EE66E66EC0FF04F
:1002F000E552E552E552E5521200D80EE66EE66888
:10030000050EE66EE66A66EC0FF0E552E552E55240
:10031000E552140EE66EE66A050EE66E010EE66E16
:1003200066EC0FF0E552E552E552E5521200000E80
:10033000E66EE66A050EE66EE66A66EC0FF0E552DA
:10034000E552E552E552000EE66EE66A010EE66EF3
:10035000E66E66EC0FF0E552E552E552E55212000A
:10036000000EE66EE66A050EE66EE66A66EC0FF0D3
:10037000E552E552E552E552280EE66EE66A030EB6
:10038000E66E010EE66E66EC0FF0E552E552E552C0
:10039000E5521200000EE66EE66A050EE66EE66AAB
:1003A00066EC0FF0E552E552E552E552000EE66EBE
:1003B000E66A030EE66E010EE66E66EC0FF0E5529D
:1003C000E552E552E5521200000EE66EE66A030EB3
:1003D000E66EE66A66EC0FF0E552E552E552E5524C
:1003E000D80EE66EE668050EE66E010EE66E66EC69
:1003F0000FF0E552E552E552E552120098DFC80EC3
:10040000E66E34EC15F0E552780EE66E34EC15F03D
:10041000E552C80EE66E34EC15F0E552780EE66E45
:1004200034EC15F0E55212003C0EE66E34EC15F09B
:10043000E552120062DF960EE66E34EC15F0E552DE
:1004400012EC10F000018051100B0FE08051080BEE
:100450000CE08051040B09E08051020B06E0805152
:10046000010B03E0E7EC0FF0EBD71200D9CFE6FF6A
:10047000E1CFD9FF020EE126DE6ADD6ADECF14F09D
:10048000DDCF15F0D890155004E6140E145C000E64
:10049000155821E212EC10F0000180511F0B0009E9
:1004A00012E12BDF140EE66E34EC15F0E552D9CFD5
:1004B000E9FFDACFEAFF130EEE1808E1ED5006E18E
:1004C0009DDF1BDF03D0130EDE6EDD6ADF2A010E17
:1004D000D5E3DB2AD3D7020EE15C02E2E16AE55202
:1004E000E16EE552E7CFD9FF120007DF820EE66E1C
:1004F00034EC15F0E55212EC10F0000180511F0BA6
:10050000000919E100018051100B01E014D1805164
:10051000080B01E010D18051040B01E00CD1805197
:10052000020B01E008D18051010B01E004D1FFDE94
:1005300012EC10F0E7D78051100B42E18051080B0C
:100540003FE18051040B3CE18051020B39E08051C6
:10055000010B36E1D2DE820EE66E34EC15F0E55288
:1005600012EC10F000018051100B01E0E4D080513A
:10057000080B01E0E0D08051040B01E0DCD0805199
:10058000020B01E0D8D08051010B01E0D4D0000172
:100590008051100B01E0CFD08051080B01E0CBD08F
:1005A0008051040B01E0C7D08051020B01E0C3D0A1
:1005B0008051010B01E0BFD0BADE12EC10F0E7D79A
:1005C0008051100B42E18051080B3FE08051040B39
:1005D0003CE08051020B39E08051010B36E18DDEA9
:1005E000820EE66E34EC15F0E55212EC10F00001CC
:1005F0008051100B01E09FD08051080B01E09BD08F
:100600008051040B01E097D08051020B01E093D0A0
:100610008051010B01E08FD000018051100B01E0EF
:100620008AD08051080B01E086D08051040B01E094
:1006300082D08051020B01E07ED08051010B01E09D
:100640007AD075DE12EC10F0E7D78051100B38E14C
:100650008051080B35E18051040B32E08051020BD0
:100660002FE18051010B2CE148DE820EE66E34EC66
:1006700015F0E55212EC10F000018051100B5BE117
:100680008051080B58E18051040B55E18051020B59
:1006900052E18051010B4FE100018051100B4BE101
:1006A0008051080B48E18051040B45E18051020B59
:1006B00042E18051010B3FE13ADE12EC10F0ECD741
:1006C0008051100B38E18051080B35E18051040B4B
:1006D00032E08051020B2FE08051010B2CE10DDE46
:1006E000820EE66E34EC15F0E55212EC10F00001CB
:1006F0008051100B20E18051080B1DE18051040B4B
:100700001AE18051020B17E18051010B14E1000145
:100710008051100B10E18051080B0DE18051040B4A
:100720000AE18051020B07E18051010B04E1FFDD7A
:1007300012EC10F0ECD71200E0DD820EE66E34EC25
:1007400015F0E55212EC10F0000180511F0B00096A
:1007500019E100018051100B01E014D18051080B08
:1007600001E010D18051040B01E00CD18051020B4B
:1007700001E008D18051010B01E004D18ADD12ECC7
:1007800010F0E7D78051100B42E18051080B3FE099
:100790008051040B3CE18051020B39E18051010B87
:1007A00036E1ABDD820EE66E34EC15F0E55212EC6C
:1007B00010F000018051100B01E0E4D08051080BD3
:1007C00001E0E0D08051040B01E0DCD08051020B4D
:1007D00001E0D8D08051010B01E0D4D0000180515C
:1007E000100B01E0CFD08051080B01E0CBD080513D
:1007F000040B01E0C7D08051020B01E0C3D080514F
:10080000010B01E0BFD045DD12EC10F0E7D78051BD
:10081000100B42E18051080B3FE08051040B3CE09B
:100820008051020B39E08051010B36E166DD820E0A
:10083000E66E34EC15F0E55212EC10F00001805138
:10084000100B01E09FD08051080B01E09BD080513C
:10085000040B01E097D08051020B01E093D080514E
:10086000010B01E08FD000018051100B01E08AD014
:100870008051080B01E086D08051040B01E082D04A
:100880008051020B01E07ED08051010B01E07AD053
:1008900000DD12EC10F0E7D78051100B38E18051E9
:1008A000080B35E18051040B32E08051020B2FE13F
:1008B0008051010B2CE121DD820EE66E34EC15F047
:1008C000E55212EC10F000018051100B5BE18051F9
:1008D000080B58E18051040B55E18051020B52E1A5
:1008E0008051010B4FE100018051100B4BE1805111
:1008F000080B48E18051040B45E18051020B42E1B5
:100900008051010B3FE1C5DC12EC10F0ECD78051B7
:10091000100B38E18051080B35E08051040B32E0B8
:100920008051020B2FE18051010B2CE1E6DC820E9D
:10093000E66E34EC15F0E55212EC10F00001805137
:10094000100B20E18051080B1DE18051040B1AE1CE
:100950008051020B17E18051010B14E1000180511D
:10096000100B10E18051080B0DE18051040B0AE1DE
:100970008051020B07E18051010B04E18ADC12EC8B
:1009800010F0ECD71200B9DC820EE66E34EC15F0F4
:10099000E55212EC10F000018051100B25E180515E
:1009A000080B22E18051040B1FE18051020B1CE176
:1009B0008051010B19E100018051100B01E0EFD1D2
:1009C0008051080B01E0EBD18051040B01E0E7D12D
:1009D0008051020B01E0E3D18051010B01E0DFD136
:1009E000A6DC12EC10F0E7D78051100B42E18051E9
:1009F000080B3FE18051040B3CE08051020B39E1D0
:100A00008051010B36E079DC820EE66E34EC15F095
:100A1000E55212EC10F000018051100B01E0BFD143
:100A20008051080B01E0BBD18051040B01E0B7D12C
:100A30008051020B01E0B3D18051010B01E0AFD135
:100A400000018051100B01E0AAD18051080B01E098
:100A5000A6D18051040B01E0A2D18051020B01E02C
:100A60009ED18051010B01E09AD161DC12EC10F0B3
:100A7000E7D78051100B44E18051080B41E18051D0
:100A8000040B3EE18051020B3BE08051010B38E04A
:100A90007DEC01F0820EE66E34EC15F0E55212ECBE
:100AA00010F000018051100B01E079D18051080B4A
:100AB00001E075D18051040B01E071D18051020B2E
:100AC00001E06DD18051010B01E069D1000180513D
:100AD000100B01E064D18051080B01E060D180511E
:100AE000040B01E05CD18051020B01E058D1805130
:100AF000010B01E054D197EC01F012EC10F0E6D7B5
:100B00008051100B44E18051080B41E18051040BEE
:100B10003EE18051020B3BE08051010B38E17DEC5E
:100B200001F0820EE66E34EC15F0E55212EC10F096
:100B300000018051100B01E032D18051080B01E01F
:100B40002ED18051040B01E02AD18051020B01E02B
:100B500026D18051010B01E022D100018051100B00
:100B600001E01DD18051080B01E019D18051040B27
:100B700001E015D18051020B01E011D18051010B30
:100B800001E00DD197EC01F012EC10F0E6D78051A6
:100B9000100B44E18051080B41E08051040B3EE012
:100BA0008051020B3BE08051010B38E17DEC01F0FC
:100BB000820EE66E34EC15F0E55212EC10F00001F6
:100BC0008051100B01E0EBD08051080B01E0E7D021
:100BD0008051040B01E0E3D08051020B01E0DFD033
:100BE0008051010B01E0DBD000018051100B01E0CE
:100BF000D6D08051080B01E0D2D08051040B01E027
:100C0000CED08051020B01E0CAD08051010B01E02F
:100C1000C6D097EC01F012EC10F0E6D78051100B23
:100C200044E18051080B41E18051040B3EE08051CA
:100C3000020B3BE18051010B38E17DEC01F0820EAB
:100C4000E66E34EC15F0E55212EC10F00001805124
:100C5000100B01E0A4D08051080B01E0A0D080511E
:100C6000040B01E09CD08051020B01E098D0805130
:100C7000010B01E094D000018051100B01E08FD0F6
:100C80008051080B01E08BD08051040B01E087D02C
:100C90008051020B01E083D08051010B01E07FD035
:100CA00097EC01F012EC10F0E6D78051100B3AE10E
:100CB0008051080B37E08051040B34E08051020B67
:100CC00031E18051010B2EE17DEC01F0820EE66EE8
:100CD00034EC15F0E55212EC10F000018051100BCD
:100CE0005EE18051080B5BE18051040B58E18051BB
:100CF000020B55E18051010B52E100018051100BB4
:100D00004EE18051080B4BE18051040B48E18051CA
:100D1000020B45E18051010B42E197EC01F012EC2E
:100D200010F0EBD78051100B3AE18051080B37E1FE
:100D30008051040B34E08051020B31E08051010BF3
:100D40002EE17DEC01F0820EE66E34EC15F0E552FA
:100D500012EC10F000018051100B21E18051080BC2
:100D60001EE18051040B1BE18051020B18E1805100
:100D7000010B15E100018051100B11E18051080BAE
:100D80000EE18051040B0BE18051020B08E1805110
:100D9000010B05E197EC01F012EC10F0EBD712001B
:100DA0007DEC01F0820EE66E34EC15F0E55212ECAB
:100DB00010F000018051100B26E18051080B23E157
:100DC0008051040B20E18051020B1DE18051010B89
:100DD0001AE100018051100B01E0F2D18051080BA3
:100DE00001E0EED18051040B01E0EAD18051020B09
:100DF00001E0E6D18051010B01E0E2D149EC01F0C4
:100E000012EC10F0E6D78051100B44E08051080B33
:100E100041E18051040B3EE08051020B3BE18051E7
:100E2000010B38E17DEC01F0820EE66E34EC15F03A
:100E3000E55212EC10F000018051100B01E0C0D11E
:100E40008051080B01E0BCD18051040B01E0B8D106
:100E50008051020B01E0B4D18051010B01E0B0D10F
:100E600000018051100B01E0ABD18051080B01E073
:100E7000A7D18051040B01E0A3D18051020B01E006
:100E80009FD18051010B01E09BD149EC01F012ECA4
:100E900010F0E6D78051100B44E08051080B41E080
:100EA0008051040B3EE18051020B3BE18051010B6C
:100EB00038E17DEC01F0820EE66E34EC15F0E5527F
:100EC00012EC10F000018051100B01E079D180513B
:100ED000080B01E075D18051040B01E071D1805104
:100EE000020B01E06DD18051010B01E069D10001DD
:100EF0008051100B01E064D18051080B01E060D1FA
:100F00008051040B01E05CD18051020B01E058D10B
:100F10008051010B01E054D149EC01F012EC10F0CA
:100F2000E6D78051100B44E18051080B41E080511D
:100F3000040B3EE18051020B3BE18051010B38E193
:100F40007DEC01F0820EE66E34EC15F0E55212EC09
:100F500010F000018051100B01E032D18051080BDC
:100F600001E02ED18051040B01E02AD18051020B07
:100F700001E026D18051010B01E022D10001805116
:100F8000100B01E01DD18051080B01E019D18051F7
:100F9000040B01E015D18051020B01E011D1805109
:100FA000010B01E00DD149EC01F012EC10F0E6D795
:100FB0008051100B44E18051080B41E08051040B3B
:100FC0003EE08051020B3BE08051010B38E17DECAB
:100FD00001F0820EE66E34EC15F0E55212EC10F0E2
:100FE00000018051100B01E0EBD08051080B01E0B3
:100FF000E7D08051040B01E0E3D08051020B01E007
:10100000DFD08051010B01E0DBD000018051100BDB
:1010100001E0D6D08051080B01E0D2D08051040B02
:1010200001E0CED08051020B01E0CAD08051010B0B
:1010300001E0C6D049EC01F012EC10F0E6D7805187
:10104000100B44E18051080B41E18051040B3EE05C
:101050008051020B3BE18051010B38E17DEC01F046
:10106000820EE66E34EC15F0E55212EC10F0000141
:101070008051100B01E0A4D08051080B01E0A0D0FA
:101080008051040B01E09CD08051020B01E098D00C
:101090008051010B01E094D000018051100B01E060
:1010A0008FD08051080B01E08BD08051040B01E000
:1010B00087D08051020B01E083D08051010B01E009
:1010C0007FD049EC01F012EC10F0E6D78051100B04
:1010D0003AE18051080B37E18051040B34E0805134
:1010E000020B31E08051010B2EE17DEC01F0820E0C
:1010F000E66E34EC15F0E55212EC10F00001805170
:10110000100B5EE18051080B5BE18051040B58E14C
:101110008051020B55E18051010B52E100018051D9
:10112000100B4EE18051080B4BE18051040B48E15C
:101130008051020B45E18051010B42E149EC01F085
:1011400012EC10F0EBD78051100B3AE18051080BF4
:1011500037E08051040B34E08051020B31E18051C3
:10116000010B2EE17DEC01F0820EE66E34EC15F001
:10117000E55212EC10F000018051100B21E180517A
:10118000080B1EE18051040B1BE18051020B18E19A
:101190008051010B15E100018051100B11E18051CC
:1011A000080B0EE18051040B0BE18051020B08E1AA
:1011B0008051010B05E149EC01F012EC10F0EBD786
:0211C00012001B
:0E11C2001DEC0EF0FB0EDBCFF3FFDB06F3504F
:1011D00000090AE06BEC0EF0FA0ED6EC0EF0F3E12B
:1011E000151CF1E1010E01D0000E4CEF0EF01DECCC
:1011F0000EF03B0EE12402E3E168E652E16E010EDF
:10120000DB6A020EDB6AF90EDBCFF6FFFA0EDBCFEC
:10121000F7FFFB0EDBCFF8FF0800F550DF6EDF5065
:1012200002E170EF0DF0250EDF5C02E063EF0DF0E0
:10123000030EDB6A040EDB6A050EDB6A060EDB6A50
:10124000070EDB6A85EC0DF02D0EDF5C0CE02B0E3B
:10125000DF5C09E0200EDF5C06E0230EDF5C03E0CC
:10126000300EDF5C1AE1DF50300A14E0130A0FE0A1
:10127000030A0AE00B0A05E0060AE4E1030EDB803C
:10128000E1D7030EDB82DED7030EDB84DBD7030E50
:10129000DB86D8D7030EDB88D5D72A0EDF5C1BE1AF
:1012A00081EC0DF0CFEC0DF010E0030EDB80086850
:1012B0000968130EDBCF0DF0140EDBCF0EF067ECD8
:1012C00014F0040E06C0DBFF03D0130EB8EC0DF0D3
:1012D00085EC0DF00BD0090EDB6A26EC0EF003E076
:1012E0009AEC0EF0FAD7090EB8EC0DF0030EDBB055
:1012F000DB982E0EDF5C1BE185EC0DF02A0EDF5C27
:101300000BE181EC0DF0CFEC0DF003E1130E0AECD4
:101310000EF085EC0DF00BD0090EDB6A26EC0EF01A
:1013200003E09AEC0EF0FAD7090E0AEC0EF0680E04
:10133000DF5C07E185EC0DF0680EDF5C1DE1030E5C
:1013400018D0740EDF5C17E07A0EDF5C14E0480EF4
:10135000DF5C06E0540EDF5C03E05A0EDF5C02E166
:10136000020E07D06C0EDF5C03E06A0EDF5C04E166
:10137000010E5DEC0EF0C9DBDF506E0A01E17FD398
:101380001E0A01E192D1200A01E18FD13F0A01E159
:1013900049D11A0A01E146D10D0A01E143D1200ADF
:1013A00001E140D13A0A01E13DD1200A01E13AD1FF
:1013B000260A01E135D10D0A01E132D11A0A01E113
:1013C000D9D0200A4AE0300A1FE0460A0EE0250A7A
:1013D00001E083D3D950F90FE96EFF0EDA20EA6EEF
:1013E000010EEE5E000EEE5AEE5A6BEC0EF0250E7C
:1013F000E66E95DB03E1151C01E169D367EC0EF0A5
:1014000001E26BD3DB2A69D3080EDB6A040EDB50E2
:10141000010806E2040EDB042FEC0EF0DB508BDB40
:10142000080EDB5009E0030EDB50010B05E172DB17
:1014300001E04DD3080EDB6A64DBEFCFDFFFDFECAA
:101440000EF003E1151C01E142D367EC0EF001E35D
:10145000DB2A60DB01E141D33AD3070EDB500208FF
:101460000FE1ABEC0EF0030E72EC0EF00E0EEECFB1
:10147000DBFF0F0EEECFDBFF100EEECFDBFF20D039
:10148000F70EDBCF17F0F80EDBCF18F0020E175E69
:10149000000E185AF70E17C0DBFFF80E18C0DBFF5E
:1014A00017C0E9FF18C0EAFF62EC0EF0166A0E0ED4
:1014B00014C0DBFF0F0E15C0DBFF100E16C0DBFFE4
:1014C0000E0EDBCFE6FF0F0EDBCFE6FF100EDBCFFD
:1014D000E6FFE4EC13F0E552E552E552130E07C0C7
:1014E000DBFF140E08C0DBFF060EDB5005E0130E19
:1014F000A6EC0EF001E26ADBCAEC0EF002E2130E7B
:1015000037DB8DEC0EF006E0040EA6EC0EF002E2E6
:10151000050E2EDB030EDBB005D0FCDA01E0D7D2DE
:10152000080EDB6A090EDB6A0E0EDBCFF6FF0F0E2C
:10153000DBCFF7FF100EDBCFF8FF0800F550DF6EB2
:10154000DF5014E0D0EC0EF011E2DFEC0EF003E11E
:10155000151C01E1BCD2BBDB01E3DB2A090EDB2A4F
:10156000D9500E0FE96E000ECBDBE7D7D3DA01E1DD
:10157000B4D2ADD2C6DA110EEECFDBFF120EEDCF34
:10158000DBFF110EDBCFE6FF120EDBCFE6FFD6EC62
:1015900013F0E552E552130EF3CFDBFF140EF4CF38
:1015A000DBFF060EDB5004E0130ED0DB01E20EDBA6
:1015B000CAEC0EF002E2130EDBDAAFDB05E0040E3C
:1015C000C5DB02E2050ED4DA030EDBB005D0A2DAE9
:1015D00001E07DD2080EDB6A090EDB6A110EDBCF5B
:1015E000E9FF120EDBCFEAFFEFCFDFFFDF5014E0A1
:1015F000D7DB12E2E4DB03E1151C01E168D267DB13
:1016000001E3DB2A090EDB2A110EDB2ADBCFE9FF1F
:10161000120EE8E3DB2AE6D77DDA01E15ED257D28B
:10162000030EDB8E070EDB0410E195DB040E5ADBA4
:101630000A0EEECFDBFF0B0EEECFDBFF0C0EEECF74
:10164000DBFF0D0EEECFDBFF6CD0070EDB50030887
:101650002CE1030EDBAE0DD0B2DA020E76DAEFCF5C
:1016600014F0156A166A176A14AE39D01568166830
:1016700035D0F70EDBCF15F0F80EDBCF16F0020EEB
:10168000155E000E165AF70E15C0DBFFF80E16C0D9
:10169000DBFF15C0E9FF16C0EAFFEFCF14F00A0E1A
:1016A00014C0DBFF0B0EDB6A38D0070EDB500208DC
:1016B00009E1030EDBAE04D059DB16AE10D00ED01C
:1016C00055DB0DD0030EDBAE12D079DA020E3DDA17
:1016D000F9DA166A176A15AE02D016681768E2DAE8
:1016E0000C0E16C0DBFF0D0E17C0DBFF1AD0F70E75
:1016F000DBCF16F0F80EDBCF17F0020E165E000EF1
:10170000175AF70E16C0DBFFF80E17C0DBFF16C026
:10171000E9FF17C0EAFFD6DAC5DA0C0EDB6A0D0E58
:10172000DB6A060EDB5005E1010EF36E050EF3CF0A
:10173000DBFF150EDB6A160EDB6AD950370F146E0D
:10174000000EDA20156E390E14C0DBFF3A0E15C0FC
:10175000DBFF380EDB6A080EDB6A0A0EAEDADF50FA
:10176000780A12E0200A10E0280A0CE0200A0AE0B9
:101770003F0A06E00D0A02E0200A08E1020E05D049
:10178000080E03D0080EDF26100E97DA030EDBBE1C
:1017900002D0DB92DB94DB50800B24E08ADAD89015
:1017A000030EEB50000A08E6000EEE5C000EEE5849
:1017B000000EEE58000EEE5815E213DA0B680C68B6
:1017C0000D680E682FEC13F00A0E02C0DBFF0B0E43
:1017D00003C0DBFF0C0E04C0DBFF0D0E05C0DBFFFA
:1017E0002D0E08D0030EDBA202D02B0E03D0DBA4FB
:1017F00008D0200EF36E170EF3CFDBFF150EDB2A99
:1018000002D0170EDB6A050EDB5003E1B7D901E108
:1018100089D0AE0E146E2B0E156E000E166E070ECE
:10182000DBCF17F0186A196A1A6A17C00BF018C0D4
:101830000CF019C00DF01AC00EF0D3D9BBEC14F0A7
:1018400014500224F36E15500320F46E1650042039
:10185000F86EF4CFF7FFF3CFF6FF0800090EF5CFCF
:10186000DBFF580EDF5C0FE1610EF36E090E7BD9D2
:101870000AE3200E146E090EDBCFE7FF1450E75E7B
:10188000090EE7CFDBFF070EDBCF14F0156A166AEF
:10189000176A0FDA14C00BF015C00CF016C00DF06B
:1018A00017C00EF0EECF06F0EECF07F0EECF08F047
:1018B000EFCF09F0BBEC14F009C0EDFF08C0EDFF5D
:1018C00007C0EDFF06C0EFFF390EDBCFE9FFDB06F7
:1018D0003A0EDBCFEAFF01E2DB06090EDBCFEFFFBA
:1018E000150EDB2A4BD995E1030EDBA61DD06F0E3A
:1018F000DF5C06E1C1D918E3150EDB285BDA14D0F2
:10190000780EDF5C09E0580EDF5C06E0620EDF5CFB
:1019100003E0420EDF5C08E1020EF36E160EF3CF19
:10192000DBFF02D0150EDB6A030EDB50100B0EE05E
:10193000040EDBCF14F0050EDB50D880145406E201
:10194000060EDB5003E1040EDB5034DA95D90AE2CF
:10195000050EDBCFE7FF150EDB50E75E050EE7CF88
:10196000DBFF02D0050EDB6A040EDBCF14F0160E8F
:1019700045D9D880145414E2160EDBCFE6FF150EBD
:10198000DBCFE6FF040EDBCFE6FF050EDB50E552B2
:10199000E75CE552D880E754E552D880E7545FD938
:1019A000030EDB50010B0BE1080EDB5008E0B2D850
:1019B00001E08DD0080EDB50BED8080EDB6A170E92
:1019C000DB5007E088D9170EF1D903E1151C01E1BE
:1019D0007ED0160EDB5016E07ED9300EE66E9FD814
:1019E00002E1151C74E077D9DFCFE6FFB2EC12F00C
:1019F000E552E552E552F4CF15F00001F31C02E187
:101A0000151C65E0050EDBCF14F0160EDB50D880F8
:101A1000145409E2050EDBCFE7FF160EDB50E75E3C
:101A2000050EE7CFDBFF300EE66E050ECBD94FE19A
:101A3000390EDB2ADBCFE9FF3A0E01E3DB2ADBCFED
:101A4000EAFF090EEFCFDBFFDB500EE044D9090EB1
:101A5000ADD902E1151C3BE0390EDB2ADBCFE9FFF3
:101A60003A0EEDE3DB2AEBD755D831E1160EDBCF8A
:101A7000E6FF080EC3D8E552E7245DD82ED0070E46
:101A8000DB50030A1CE0010A14E0030A07E07BD9DB
:101A9000DBCFEEFF020EDBCFEDFF1FD0F5D8196ACA
:101AA00017AE02D0186819682CD8BCD819C0EEFF40
:101AB00014D0EAD817BE186824D8B4D80ED063D989
:101AC000DBCFEFFF0AD07BD905E1151C03E1F368FA
:101AD000F46810D0FCD801E3DB2A79D90CEF09F0C7
:101AE000010EDBCF14F0020EDBCF15F014C0F3FFB4
:101AF00015C0F4FF3B0EE15C02E2E16AE552E16EE3
:101B0000CBD029D9020E72EF0EF061D90800F55042
:101B1000DF6E1200200EE66E080EE2EF0EF0B2EC61
:101B200012F0E552E552E552F3CF14F0F4CF15F080
:101B30000001F31C1200146E156AD950010F4DD923
:101B40001450EE261550ED221200185E000E195AA0
:101B5000F70E18C0DBFFF80E19C0DBFF18C0E9FF55
:101B600019C0EAFF1200DBCFF4FFF350F45C12005F
:101B7000DB50E76E040EE7CFDBFF12000A0EDBCF6F
:101B800014F00B0EDBCF15F00C0EDBCF16F00D0EA4
:101B9000DBCF17F014501510161017101200130E8B
:101BA000EECFDBFF140EEDCFDBFF130EDBCF14F017
:101BB000140EDBCF15F00001800E15141200F70E85
:101BC000DBCF18F0F80EDBCF19F01200050EDB505A
:101BD000E66ED950130F01D9E552E750EE6EED6A6B
:101BE00012000A0EDBCF06F00B0EDBCF07F00C0E57
:101BF000DBCF08F00D0EDBCF09F01200DBCFE6FFE4
:101C0000150EDBCFE6FF050EDB50E552E724E5526B
:101C1000E7241200DB50CED8010EF36E060EF3CF90
:101C2000DBFF1200EE50EFCFEAFFE96E16C0EEFFC9
:101C300017C0EEFF18C0EEFF1200D9CFE6FFDACFD3
:101C4000E6FFE1CFD9FFE2CFDAFF1200DFCFE6FFF8
:101C5000E66A78EC15F0E552E552F3501200E76EB3
:101C6000080EE7CFDBFF1200EECF14F0EECF15F039
:101C7000EFCF16F0176A1200050EDBCF14F0150E29
:101C8000DB50D88014541200010EDBCF16F0020E88
:101C9000DBCF17F0186A1200E552E5CFDAFFE7CF85
:101CA000D9FF12000A0E14C0DBFF0B0E15C0DBFFBC
:101CB0001200D9500A0FEDEF0EF0F36E070EF3CFBE
:101CC000DBFF1200EECF14F0EFCF15F01200010E83
:101CD000DB2A020E1200FC0EDBCFE6FFFD0EDBCF8F
:101CE000E6FF1200145E000E155AF70E14C0DBFF5B
:101CF000F80E15C0DBFF14C0E9FF15C0EAFF1200A3
:101D0000DA20EA6EEF2AEECFF6FF000EEF22EECFDA
:101D1000F7FFEF22EECFF8FF1200040EDBCFE6FF55
:101D2000130EDB50E552E75C9ADFDB5004DF060E52
:101D3000DB501200090EDB500A0DF350DF24D00FE8
:101D4000E76E090EE7CFDBFF85EF0DF0DB50F36E9A
:101D5000050EB3EF0DF0F70EDBCF14F0F80EDBCF6E
:101D600015F01200DFCFE6FF8FEF0DF028DF030E36
:101D7000ECDE34EF0EF0E1EC08F0E552E552E5520E
:101D8000E55200091200BDDEEE50EFCFEAFFE96E2A
:101D9000010E1200130EDB50F36E040EB3EF0DF0C4
:101DA000040EDB50F36E090EB3EF0DF0DBCFE6FF50
:101DB0008FEF0DF0E76E050EE7CFDBFF12008BDF34
:101DC000B2EF0EF0DBCFE6FF86DFBBEF0EF0D950AF
:101DD000F90FE96EFF0E80EF0EF0E96E000EDA20CB
:041DE000EA6E120095
:0C1DE400D08EF29EF29C94EC14F059D8C2
:101DF000100EE66EE66A3C0EE66E6DEC12F0E552F1
:101E0000E552E5525ED8836AC2EC15F0000902E0A3
:101E10009AD911D0E0EC15F0000902E011DA0BD0EC
:101E2000B6EC15F0000902E01FDA05D0FCAE02D0D6
:101E30002DDA01D03EDA38D83ED840D845D84BDA32
:101E40000A0EE66E0C0EE66EA70EE66E9FEC13F021
:101E5000E552E552E552829A849082908492060E71
:101E6000E66E01EC15F0E552C70EE66E1CEC15F0BF
:101E7000E552C70EE66EF4EC12F0E552000EE66E87
:101E8000E66A38EC14F0E552E552000EE66EE66ABA
:101E900009EC14F0E552E5520001996B020E9A6FBD
:101EA0001200949C948E1200949094929494949620
:101EB0009498949A1200EF0E926E1200C00E936ED8
:101EC0001200600E956E1200966A1200D9CFE6FFDE
:101ED000E1CFD9FF030EE126010EF36E020EF3CF20
:101EE000DBFFFB0EDBCF16F0FC0EDBCF17F0FD0E99
:101EF000DBCFE9FFEA6AE9BEEA68D890E936EA365C
:101F0000810EE926000EEA221650EE24146E1750B8
:101F1000EE2014C0DEFFDD6EDECF14F0DDCF15F055
:101F20000001800E15140EE0020EDB6A08680968D5
:101F3000DECF0DF0DDCF0EF067EC14F006C0DEFF53
:101F400007C0DDFFDECF14F0DDCF15F0153409E258
:101F500014502008030E155404E2200EDE6E030E0A
:101F6000DD6EFE0EDB5015E1DECFE6FFDDCFE6FFD6
:101F700009EC14F0E552E552020EDB5002E18290CA
:101F800001D082808250010B02E0849216D08482BC
:101F900014D0DECFE6FFDDCFE6FF38EC14F0E552DB
:101FA000E552020EDB5002E1829A01D0828A825011
:101FB000200B02E0849001D08480030EE15C02E2F9
:101FC000E16AE552E16EE552E7CFD9FF1200200E3B
:101FD000E66E030EE66E38EC14F0E552E552200E84
:101FE000E66E030EE66E09EC14F0E552E5528492BB
:101FF00082908490829A1200D9CFE6FFE1CFD9FF78
:10200000FE0EDBCFE6FF4BEC15F0E552EEEC15F0E3
:10201000E6EC15F00009FCE1CEEC15F0E552E7CF57
:10202000D9FF1200870EE66EE7DFE552F3CF14F01A
:10203000F4CF15F00001F350995DF4509A5902E382
:10204000000E01D0010E00018099E8B080898F0E4A
:10205000E66ED2DFE552F3CF14F0F4CF15F00001B5
:10206000F350995DF4509A5902E3000E01D0010E2D
:1020700000018097E8B08087970EE66EBDDFE552DD
:10208000F3CF14F0F4CF15F099C016F09AC017F002
:10209000640E165E000E175AF350165CF450175873
:1020A00002E3000E01D0010E00018095E8B08085AA
:1020B0009F0EE66EA1DFE552F3CF14F0F4CF15F0DA
:1020C0000001F350995DF4509A5902E3000E01D0DB
:1020D000010E00018093E8B08083A70EE66E8CDFCE
:1020E000E552F3CF14F0F4CF15F00001F350995DF1
:1020F000F4509A5902E3000E01D0010E00018091C4
:10210000E8B08081120000018051100B02E0839042
:1021100001D083808051080B02E0839201D083823A
:102120008051040B02E0839401D083848051020B20
:1021300002E0839601D083868051010B02E08398F0
:10214000120083881200D9CFE6FFE1CFD9FF080E35
:10215000E126DE6ADE6ADE6ADD6ADD52DD52040EE9
:10216000DB6A050EDB6A060EDB6A070EDB6AEBEC48
:1021700015F0370EE66E270EE66E000EE66E21ECC9
:1021800012F0E552E552E552839083828384838680
:102190008388D9CFE9FFDACFEAFF0A0EEE5C000EA2
:1021A000EE58000EEE58000EEE5840E20400D950F2
:1021B000040FE96EDACFEAFF300EEE1806E1750E75
:1021C000EE1803E1EE5001E1EE5014E1040EDB6A7B
:1021D000050EDB6A060EDB6A070EDB6AD9CFE9FF64
:1021E000DACFEAFFEE2A000EEE22EE22EE228390F4
:1021F000838211D0D950040FE96EDACFEAFF980E2E
:10220000EE1806E13A0EEE1803E1EE5001E1EE5051
:1022100002E183808392D950040FE96EDACFEAFF9E
:10222000EE2A000EEE22EE22EE22B3D7080EE15C7B
:1022300002E2E16AE552E16EE552E7CFD9FF120012
:10224000EBEC15F0310EE66E270EE66E000EE66E34
:1022500021EC12F0E552E552E552838083828384BB
:10226000838683988AEF11F0280EE66E270EE66EBD
:10227000000EE66E21EC12F0E552E552E552839035
:1022800083828394838683888AEF11F0FC9E1F0EDD
:10229000E66E270EE66E000EE66E21EC12F0E552B9
:1022A000E552E552839083828394838683988AEFF4
:1022B00011F0150EE66E270EE66E000EE66E21ECAE
:1022C00012F0E552E552E55283908382839483961F
:1022D00083988AEF11F0D08ED288A284D29ED286C3
:1022E000D284D282D290A194A084F28E12000E0EDB
:1022F000E66E270EE66E000EE66E21EC12F0E55259
:10230000E552E552DEDD8390838283848396838861
:102310008AEF11F0D9CFE6FFE1CFD9FF040EE12615
:10232000DE6ADE6ADE6ADD6ADD52DD520400D9CF84
:10233000E9FFDACFEAFF300EEE1806E1750EEE186F
:1023400003E1EE5001E1EE5009E1DE6ADE6ADE6A89
:10235000DD6ADD52DD528390838210D0D9CFE9FF50
:10236000DACFEAFF980EEE1806E13A0EEE1803E116
:10237000EE5001E1EE5002E183808392D9CFE9FF74
:10238000DACFEAFFEE2A000EEE22EE22EE22CED7C0
:10239000040EE15C02E2E16AE552E16EE552E7CF4C
:0423A000D9FF12004F
:0C23A4000E0EF66E000EF76E000EF86EC6
:1023B00000010900F550946F0900F550956F03E195
:1023C000946701D03DD00900F5508F6F0900F5509A
:1023D000906F0900F550916F09000900F550E96E02
:1023E0000900F550EA6E090009000900F550926FE6
:1023F0000900F550936F09000900F6CF96F0F7CF6A
:1024000097F0F8CF98F08FC0F6FF90C0F7FF91C01B
:10241000F8FF0001925302E1935307E00900F550E1
:10242000EE6E9207F8E29307F9D796C0F6FF97C0D1
:10243000F7FF98C0F8FF00019407000E955BBFD727
:02244000120088
:0E244200D9CFE6FFDACFE6FFE1CFD9FFE2CF38
:10245000DAFFE652E652E652E652D950FB0F146E0E
:10246000FF0EDA20156E14C0DEFFDD6EDECFE6FF54
:10247000DDCFE6FFFB0EDBCFE6FFFC0EDBCFE6FF9A
:10248000FD0EDBCFE6FF9BC0E6FF9CC0E6FFF7EC4E
:1024900008F0146E070EE15C02E2E16AE552E16EBB
:1024A0001450020EF3CFDBFF030EF4CFDBFF020E5E
:1024B000DBCF14F0030EDBCF15F014C0F3FF15C013
:1024C000F4FF040EE15C02E2E16AE552E16EE552DE
:0A24D000E5CFDAFFE7CFD9FF1200D5
:0624DA00D9CFE6FFDACFC6
:1024E000E6FFE1CFD9FFE2CFDAFFAC6AAB6AFD0EBF
:1024F000DBB0AC88DBA202D0AC8CAB8CDBB4AC8E96
:10250000DBA602D0AB8801D0AB8ADBB8AC849E9846
:10251000DBBAAB86DBAC02D09D8A01D09D9A9E9A35
:10252000DBAE02D09D8801D09D98FB0EDB50AF6ED4
:10253000FB0EFC0EDBCF15F015C014F0156A14501D
:10254000B06EAC8AAB8E949C948EAC50100B04E0B1
:10255000AC50800B01E1948CE552E5CFDAFFE7CF78
:04256000D9FF12008D
:0C256400D9CFE6FFDACFE6FFE1CFD9FFC8
:10257000E2CFDAFFFB0EDBCF14F0FC0EDBCF15F061
:102580000001800E15141AE1FB0EDBCFE9FFFC0EF3
:10259000DBCFEAFFEECFF3FFEDCFF4FFEE2A000E24
:1025A000EF22F3CFE9FFF4CFEAFFFD0EDBCFEFFF21
:1025B000EF50156AF36E15C0F4FF10D0FB0EDB5020
:1025C000FE0806E1FD0EDBCFE6FFA8EC15F005D016
:1025D000FD0EDBCFE6FF03EC00F0E552E552E5CF60
:0825E000DAFFE7CFD9FF12007A
:0825E800D9CFE6FFDACFE6FFD0
:1025F000E1CFD9FFE2CFDAFFE652E652E652E652E9
:10260000F8CF02F0F6CF03F00C0EBA6E050EF66EA0
:10261000F76A300EF86E0800F550010B03E0010E6A
:10262000DB6802D0010EDB6A010EDB5002E09492FF
:1026300001D09396CA94FD0EDB50CB6ECA8402C0C3
:10264000F8FF03C0F6FF040EE15C02E2E16AE55226
:0E265000E16EE552E5CFDAFFE7CFD9FF1200C9
:02265E00065024
:102660000B02F3CF02F0F4CF03F00C02F350032679
:10267000000EF420046E06500D02F3500426000EE6
:10268000F420056E06500E02F350052607500B028B
:10269000F3500326F4500422000E052207500C02CA
:1026A000F3500426F450052207500D02F35005267E
:1026B00008500B02F3500426F450052208500C0277
:0E26C000F350052609500B02F35005261200B8
:0226CE000A0DF3
:1026D0004B77616E746C656E2041505343313239D3
:1026E000392073696D706C6520637572766520663C
:1026F0006F6C6C6F776572202D2D20776974682060
:102700006572726F7220636F6465730A0D005C3CC2
:102710004C56443E00203C72657365743E20003C7C
:1027200053544B46554C3E003C57445420544F3E66
:0D273000003C424F523E003C504F523E00D4
:01273D00009B
:02273E00D9CFF1
:10274000E6FFDACFE6FFE1CFD9FFE2CFDAFFC26AD8
:10275000C06AFC0EDB407F0B3C0BC26EFC0EDB380C
:10276000F00B300B146EFB0EDB500F0B1410C16E10
:10277000FD0EDB50040DF350380B156EFD0EDB38EB
:102780000F0B070B146EFD0EDB50800B1410151091
:10279000C06EFC0EDBAE03D09E9C9D8CF28CC28082
:0C27A000E552E5CFDAFFE7CFD9FF1200C9
:0427AC00FE0EE3CF6B
:1027B000E9FFFF0EE3CFEAFFF36AF46AEE5203E0AB
:1027C000F34AF42AFBD71200FF0EE3CFF8FFE552DD
:1027D000FF0EE3CFF7FFE552FF0EE3CFF6FFE55222
:1027E000E66AE66AE66A0900F55209E0FD0EE32AA8
:1027F00005E1FE0EE32A02E1FF0EE32AF4D7FD0E07
:10280000E3CF07F0FE0EE3CF08F0FF0EE3CF09F0B1
:022810001200B4
:0E281200D9CFE6FFDACFE6FFE1CFD9FFE2CF64
:10282000DAFFE652E652FC0EDBCF14F0FD0EDBCFF2
:1028300015F0060ED89014361536E804FBE114C0E6
:10284000DEFF15C0DDFF010EDB50BB6EDF50E84040
:10285000E8403F0B300B146ECF0EBA141410BA6E52
:10286000E552E552E552E5CFDAFFE7CFD9FF120096
:10287000D9CFE6FFDACFE6FFE1CFD9FFE2CFDAFF2B
:10288000E652E652FC0EDBCF14F0FD0EDBCF15F066
:10289000060ED89014361536E804FBE114C0DEFFAE
:1028A00015C0DDFF010EDB50BE6EDF50E840E84092
:1028B0003F0B300B146ECF0EBD141410BD6EE552DD
:0E28C000E552E552E5CFDAFFE7CFD9FF12006F
:0228CE0009C03F
:1028D00013F008C012F008500D02F4CF07F0F3CF48
:1028E00006F009500E02F4CF09F0F3CF08F00D0204
:1028F000F3500726F4500822E86A092212500E020B
:10290000F3500726F4500822E86A09220EAE8DEF34
:1029100014F01250085E1350095A13AE000C0D50FB
:08292000085E0E50095A000C7C
:08292800D9CFE6FFE1CFD9FF92
:10293000020EE126D38CD38AD3889B8CDE6ADD6AB3
:10294000DECF14F0DDCF15F0D890155004E6F40E6C
:10295000145C010E155805E2DF2A010EF1E3DB2AB3
:10296000EFD7020EE15C02E2E16AE552E16EE55268
:06297000E7CFD9FF1200C1
:0A297600056A046A036A026A200E73
:10298000E76ED89006360736083609360236033623
:10299000043605360B50025C0C5003580D50045899
:1029A0000E50055809E30B50025E0C50035A0D50AF
:0E29B000045A0E50055A062AE72EE4D71200EC
:0229BE00F2EC39
:1029C0000EF0CE0EE66E260EE66E000EE66E21ECE2
:1029D00012F0E552E552E55204000001130E996F22
:1029E000010E9A6F12EC10F083EC10F01AEC00F06C
:1029F000040075EC15F0000902E077EC11F0F2D755
:022A00001200C2
:0E2A0200D9CFE6FFDACFE6FFE1CFD9FFE2CF72
:102A1000DAFFFD0EDB50FB0BCA6ECC6A9E92FD0EF8
:102A2000DBAE02D09D8201D09D92CA84E552E5CFF3
:082A3000DAFFE7CFD9FF120025
:082A3800D9CFE6FFDACFE6FF7B
:102A4000E1CFD9FFE2CFDAFF0C0EBD129494CA9405
:102A5000FD0EDB50CB6ECA84E552E5CFDAFFE7CF3F
:082A6000D9FF1200949412004A
:082A6800FF0EE3501C6EEF0E9F
:102A700001D0F30EE76EE72E3BEF15F00C0E1B6E48
:102A8000E76AE72E41EF15F01B2E40EF15F01C2EE4
:062A900039EF15F0120001
:0A2A9600D9CFE6FFDACFE6FFE1CF6B
:102AA000D9FFE2CFDAFFC30EC214146EFD0EDB4075
:102AB0007F0B3C0B1410C26EE552E5CFDAFFE7CF77
:042AC000D9FF120028
:0C2AC400DACFE4FFE652A1949268936818
:102AD00094689568030E966E0001010E9D6FA09498
:102AE000D298E552E5CFDAFF110000019D511200A6
:102AF000F36AF46AFF0EE124E96EFF0EE220EA6E4B
:102B0000ED6607D02F0EEF6404D03A0EEF6001D0CF
:042B1000F32A120092
:0C2B1400800EF36E00EE00F00F0E01D8F2
:102B20001200EA6002D0EE6AFCD7F350E9601200AE
:042B3000EE6AFCD776
:0C2B34001EEE00F02EEE00F0F86A019C8E
:102B4000D2EC11F0F0EC15F0DFEC14F0FBD7120032
:102B5000FF0EE350ACBA04D0AF6AAB8EAC8A949C43
:0C2B6000ACA2FED7AD6EF36EF46A12005A
:042B6C00D0A209D01A
:102B7000D0A406D0D0A003D0D0B6000C010C000C1D
:042B8000000C000C39
:0C2B8400D0B209D0D0A406D0D0B003D04D
:0C2B9000D0A6000C010C000C000C000C86
:042B9C00C450176E9C
:0E2BA000166AC3501610F36E17C0F4FF120031
:022BAE003031C4
:0F2BB00032333435363738396162636465660015
:0C2BC000D0B003D0D0A2000C010C000C1F
:042BCC00C250020BE6
:062BD00001E0010E1200FD
:062BD600D082D080120045
:042BDC00C28212009F
:022BE0001200E1
:0E2BE20000E0FCA8FD70FE00009001580220EB
:012BF00003E1
:022BF100FEFFE5
:020000040030CA
:0100010008F6
:0100020003FA
:0100030006F6
:0100050003F7
:010006008178
:00000001FF
